:020000040804EE
:1000000000000824B18C0808FD8C08081D030808AE
:1000100023030808290308082F030808000000002C
:10002000000000000000000000000000BDA3070861
:10003000FD8C08080000000057A4070867A4070803
:10004000FD8C0808FD8C0808FD8C0808FD8C08084C
:10005000FD8C0808FD8C0808FD8C0808FD8C08083C
:10006000FD8C0808FD8C0808FD8C0808FD8C08082C
:10007000FD8C0808FD8C0808FD8C0808FD8C08081C
:10008000FD8C0808FD8C0808FD8C0808619B080899
:10009000719B08086D9B08087D9B0808FD8C08086B
:1000A000FD8C0808FD8C0808FD8C0808FD8C0808EC
:1000B000FD8C0808FD8C0808FD8C0808FD8C0808DC
:1000C000FD8C0808FD8C0808FD8C0808FD8C0808CC
:1000D000FD8C0808FD8C0808FD8C0808FD8C0808BC
:1000E000FD8C0808FD8C080800000000FD8C080845
:1000F000FD8C0808FD8C0808FD8C0808FD8C08089C
:10010000FD8C080871890808FD8C0808FD8C08081A
:10011000FD8C0808FD8C0808FD8C0808FD8C08087B
:10012000FD8C0808FD8C0808FD8C0808FD8C08086B
:10013000FD8C0808FD8C0808FD8C0808FD8C08085B
:10014000FD8C0808FD8C080800000000000000007D
:10015000FD8C0808FD8C0808FD8C0808FD8C08083B
:10016000FD8C0808FD8C0808FD8C0808FD8C08082B
:10017000FD8C0808FD8C0808FD8C080800000000B4
:10018000FD8C0808FD8C0808FD8C0808FD8C08080B
:10019000FD8C0808FD8C0808FD8C0808FD8C0808FB
:1001A000BD500408FD8C0808FD8C0808FD8C08086B
:1001B000FD8C0808FD8C0808FD8C0808FD8C0808DB
:1001C000FD8C0808FD8C0808FD8C0808FD8C0808CB
:1001D000FD8C0808FD8C0808FD8C0808FD8C0808BB
:1001E000FD8C0808FD8C0808FD8C0808FD8C0808AB
:1001F000FD8C0808FD8C0808FD8C0808FD8C08089B
:10020000FD8C0808FD8C0808FD8C0808FD8C08088A
:10021000FD8C0808FD8C0808FD8C0808FD8C08087A
:10022000FD8C0808FD8C0808FD8C0808FD8C08086A
:10023000FD8C0808AD8C0808FD8C0808FD8C0808AA
:10024000FD8C0808FD8C0808FD8C0808FD8C08084A
:10025000FD8C0808FD8C0808FD8C0808FD8C08083A
:10026000FD8C0808FD8C0808FD8C0808FD8C08082A
:10027000FD8C0808FD8C0808FD8C0808FD8C08081A
:10028000FD8C0808FD8C0808FD8C080800000000A3
:10029000FD8C0808FD8C080810B5054C237833B98F
:1002A000044B13B10448AFF300800123237010BD49
:1002B0008014002400000000DC940A0808B5034BF9
:1002C0001BB103490348AFF3008008BD00000000E4
:1002D00084140024DC940A08154B002B08BF134B30
:1002E0009D46A3F5803A00218B460F461348144AD9
:1002F000121A52F0E5F80F4B002B00D098470E4B26
:10030000002B00D098470020002104000D000D486C
:10031000002802D00C4840F027FF51F0C1FB20001C
:1003200029003CF015F941F033F900BF0000080046
:100330000000082400000000ADC407088014002459
:1003400080E90124691108080000000038B50D4655
:10035000002204465F2128464DF05EFB421C034606
:1003600005D1294620464DF0E7FB204638BD002246
:10037000294620464DF020FCF7E7000000F1080375
:1003800073B5044603600D46E1B1084652F098FD8E
:100390000F2805EB0006019007D9002201A920468D
:1003A0004DF020FA019B2060A36032462946206868
:1003B0004DF06CFA019B2268002120466360D15405
:1003C00002B070BD01484DF02FFC00BFEDA509083B
:1003D0002DE9F34102AB1826204C054603E906003F
:1003E0000023009FC0E900338360019B5E43F3104C
:1003F00007EB06085C4309D0194B9C4202D94DF02B
:1004000003FC1FE0304641F0FFF8044626442C6010
:10041000AE602646B8451BD016B918371836F9E72E
:10042000394630464DF088FBF7E74CF0B5FEA64262
:1004300004D0204618344DF0F9F9F8E74DF0A6F84D
:100440004CF0EAFE286808B141F006F94CF06CFF68
:1004500028466E6002B0BDE8F08100BFABAAAAAA30
:10046000AAAAAA0A70B50446D0E90056AE4204D042
:10047000284618354DF0DAF9F8E7206808B141F060
:10048000EBF8204670BD30B5426885B00B78044665
:1004900001920D468268037000230292C268436095
:1004A000C360836003924A6842604B608A688368D5
:1004B00082608B60CA68C368C26001A8CB60FFF726
:1004C000D1FF2B692046236105B030BD70B50646CB
:1004D0000C468CB1E1683046FFF7F8FF04F12C00C0
:1004E000A568FFF7BFFF04F110004DF09FF920460B
:1004F00041F0B2F82C46ECE770BD10B504468168B7
:10050000FFF7E4FF204610BD10B50446006808B1AF
:1005100041F0A2F8204610BD2DE9F34102AB04469C
:1005200003E90600019D0023009EAD008360C0E941
:10053000003306EB0508A81065B1B0F1804F06D373
:100540004DF062FB2046FFF7DFFF4CF0EDFE284642
:1005500041F05AF84719B0452060A76003D02A46F9
:10056000314651F0AFFE2046676002B0BDE8F08131
:100570002DE9F843D0E9003491460646E41A0F46C7
:10058000A1EB0308A41014BF22460122A41834D200
:10059000B4F1804F31D294BB254615EB080F18BF3C
:1005A000D9F80030D6F8009018BF45F80830B945A2
:1005B000A7EB090804D042464946284651F01CFFE3
:1005C000726808F10403BA422B44A2EB070805D075
:1005D00018464246394651F075FE034603EB0807BC
:1005E000B9F1000F02D0484641F036F805EB84041B
:1005F000C6E90057B460BDE8F8836FF04044A0003E
:1006000041F002F80546C8E70A46D0E9011310B5E3
:100610009942044605D009B112680A60043161604C
:1006200010BDFFF7A5FFFBE72DE9F74FD0E90074F8
:1006300006460D46E41B9146CF1BE310354C5C4348
:1006400014BF23460123E418334B5CD29C425AD892
:10065000002C59D1A04618EB070002D049464DF0B6
:100660007BF93768C146BA4655450BD0B9F1000F42
:1006700003D0514648464DF06FF90AF1180A09F1C6
:100680001809F1E7EA1B254B4FF018097568D208E5
:100690005A4322F0604209FB02F207EB020A4A4485
:1006A0001F4608EB02095246CB4695420CD0BBF1DF
:1006B000000F05D01146584601924DF04DF9019AB0
:1006C00018320BF1180BF0E7A5EB0A051823ED081B
:1006D0007D4325F0604503FB0595D6E90079B945D2
:1006E00004D0384618374DF0A1F8F8E7306808B163
:1006F00040F0B2FF182303FB0484C6E90085B46010
:1007000003B0BDE8F08F1C461820604340F07CFF2A
:100710008046A0E7ABAAAAAAAAAAAA0AABAAAA0AD2
:1007200038B5D0E9013504460A46AB4207D013B1CB
:1007300018464DF011F963681833636038BD1946E7
:10074000FFF772FFFAE708B54DF0A2F9C00F08BD38
:100750002DE9F047AB4CA0B00646A5680434274607
:1007600055B1314605F11000FFF7EDFF10B92C46E9
:10077000AD68F5E7ED68F3E7BC4207D004F110017E
:100780003046FFF7E0FF002800F050819E493046D8
:100790004DF08EF920B903F02BF920B0BDE8F087B9
:1007A0009A4930464DF084F910B901F09BFFF4E707
:1007B0000022974930464DF05DF948B9306809305C
:1007C00050F0D4F90028D8BF0C2002F077FDE4E700
:1007D000904914A839F05FFC31680EA839F05BFC31
:1007E0000EA914A839F08AFC01468B4839F09AFB0F
:1007F0000EA839F005FC14A839F002FCCDE70EA8CC
:10080000E16AFFF7A3FDE06A01F008FC8146834935
:10081000E06A14AD4DF04CF96F4606AE0DF1100ACA
:100820000DF1080820B97E492846FFF7A7FD0AE028
:100830007C49E06A4DF03CF90028F4D00EA9284626
:100840004DF07AF92AE078491AA8FFF797FD0223BC
:10085000009508A8019397E80600FFF7B9FD022369
:1008600002960BA80393534698E80600CDE9069933
:10087000FFF752FE0BA908A801F00CF90BA8FFF72F
:1008800043FE08A8FFF7EEFD1AA84CF0CFFF28465C
:100890004CF0CCFF0EA84CF0C9FF7EE70124049574
:1008A00008A805949AE80600FFF792FD3B460BA8BE
:1008B000CDF80890CDE9068496E80600FFF72CFEF7
:1008C0000BA908A801F0E6F80BA8FFF71DFE08A881
:1008D000FFF7C8FDDBE7CDE90B55CDE90D55CDE9B7
:1008E0000F554E4E4E4FDFF84081D4E90B45AC42D8
:1008F0004BD0314620464DF0DBF848B149492046FF
:100900004DF0D6F820B1214614A8FFF71FFD22E0D4
:10091000204601F083FB0890394614A8FFF72EFD0E
:1009200014A90BA8FFF7FCFE14A84CF07FFF08A940
:100930000EA8FFF769FE414614A8FFF71FFD14A992
:100940000BA8FFF7EDFE14A84CF070FF08A90EA845
:10095000FFF75AFE12E014A90BA8FFF7E1FE14A856
:100960004CF064FF204601F059FB1490DDE90F13B1
:10097000994205D001B1086004310F911834B6E7EF
:1009800014AA0EA8FFF7F4FDF8E70EA90BA801F0D2
:1009900081F80EA8FFF7B8FD0BA8FFF763FDFCE692
:1009A0000EA839F02DFB14A839F02AFB4CF0BCFC42
:1009B000F9E70BA8FFF7A8FD08A8FFF753FD1AA851
:1009C0004CF034FF28464CF031FF0EA84CF02EFFBF
:1009D000ECE7F1E7F3E70BA8FFF796FD08A8FFF7B0
:1009E00041FDEFE7FAE7EDE7EFE714A84CF01EFF53
:1009F0000EA8FFF789FD0BA8FFF734FDD6E7F4E753
:100A0000F3E7F5E79C140024D1A4090894A409088D
:100A10009DA40908A7A40908B0300124BBA40908B3
:100A20006DA50908C5A4090878A5090894F8283017
:100A3000012B3FF450AFFFF4E2AE022B7FF4ADAEDA
:100A4000D4E90B56B5423FF4A8AE2846FFF780FE26
:100A5000A06B002801DD39F0B9FB1835F2E700BFC3
:100A60002DE9F04104460F4690468D680E1D012089
:100A70005DB105F110014046FFF765FE18B1AB68A6
:100A80002E461D46F4E7EB68FAE7A0B1FB68B342D7
:100A900004D1256066602046BDE8F08130464CF008
:100AA000E9FD0546414605F11000FFF74CFE20B177
:100AB00000232360EEE73546F4E7C4E90050EAE797
:100AC0002DE9F34700F1040980468A4685684C46C3
:100AD00065B1514605F11000FFF735FE18B9AB6856
:100AE0002C461D46F4E7EB682546F9E7A14506D0FC
:100AF00004F110015046FFF726FE00283DD03C20AF
:100B000040F082FD00F110060746514630464CF099
:100B100023FF0323A14587F828304FF00003C7E9DE
:100B20000B33C7E90D332DD1D8F8143043B1D8F8C1
:100B30001040314604F11000FFF705FE002879D17E
:100B4000324641466846FFF78BFFDDE90054002C32
:100B500063D0002D5FD1A1455DD004F11001304676
:100B6000FFF7F1FD4B46224639464CF085FDD8F89B
:100B700014300133C8F814303C4604F1280002B0A8
:100B8000BDE8F08704F1100A30465146FFF7DBFD5F
:100B90000546E8B1D8F80C50AC4217D020464CF0CE
:100BA00069FD314682461030FFF7CDFD30B1DAF8ED
:100BB0000C500DB1A24625465446C8E73246414680
:100BC0006846FFF74DFFDDE9005AF5E7AA46F3E76F
:100BD00031465046FFF7B7FD00B3D8F810309C42BD
:100BE0000CD020464CF02AFD054600F1100130469D
:100BF000FFF7A9FD20B1E26852B12B461C46A6E7DB
:100C0000324641466846FFF72BFFDDE90053F5E722
:100C100023461546F2E70120A4E72C4607F12C00F5
:100C2000FFF720FC30464CF001FE384640F014FD42
:100C30002746A1E7002C8ED1F0E700002DE9F04F08
:100C4000B94DDDB00026DFF820A3A9682846FFF7DC
:100C50003DFC2B1DAE606E61C5E90333B34B00272D
:100C600053F826905AF8274049462CA8FFF786FBF0
:100C700021462CA84CF0B8FE014632A84CF06CFE80
:100C800032A92846FFF71CFF8346494638A8FFF7DC
:100C900075FB214638A84CF0A7FE3EAC01464FF04C
:100CA000000820464CF058FE012201AB019402924C
:100CB00028A88DF89C8093E80600FFF789FB0DE0DB
:100CC00020464CF0B3FD38A84CF0B0FD32A84CF0F3
:100CD000ADFD2CA84CF0AAFD4CF026FB27A95846E8
:100CE000CDF8AC80FFF7CFFB28A80137FFF7BAFBA0
:100CF00020464CF09BFD38A84CF098FD32A84CF0F3
:100D000095FD2CA84CF092FD072FABD10136062E95
:100D1000A4D1874938A8FFF731FB38A98248FFF7EB
:100D2000CFFE054682492046FFF728FB012203AB90
:100D3000039433A804928DF8C82093E80600FFF7C7
:100D400047FB04E020464CF071FD38A8C2E70023C1
:100D500032A928463693FFF796FB33A8FFF782FBAC
:100D600020464CF063FD38A84CF060FD714938A86E
:100D7000FFF704FB38A96C48FFF7A2FE05466D4952
:100D80002046FFF7FBFA012205AB059433A8069233
:100D90008DF8C82093E80600FFF71AFB00E0D1E7C2
:100DA000002332A928463693FFF76DFB33A8FFF7DF
:100DB00059FB20464CF03AFD38A84CF037FD5E490F
:100DC00038A8FFF7DBFA38A95748FFF779FE054640
:100DD0005A492046FFF7D2FA594944A8FFF7CEFAFC
:100DE000022207AB079433A8089201228DF8C8208D
:100DF00093E80600FFF7ECFA03E044A84CF016FD78
:100E0000A0E7002332A928463693FFF73CFB33A81E
:100E1000FFF728FB44A84CF009FD20464CF006FDE6
:100E200038A84CF003FD474938A8FFF7A7FA38A9BE
:100E30003D48FFF745FE054643492046FFF79EFA29
:100E4000424944A8FFF79AFA022209AB099433A851
:100E50000A9201228DF8C82093E80600FFF7B8FA3D
:100E600000E0CAE7002332A928463693FFF70BFBC0
:100E700033A8FFF7F7FA44A84CF0D8FC20464CF012
:100E8000D5FC38A84CF0D2FC314938A8FFF776FAE7
:100E900038A92548FFF714FE05462E492046FFF7DE
:100EA0006DFA2D4944A8FFF769FA02220BAB0B94A7
:100EB00033A80C9201228DF8C82093E80600FFF7B2
:100EC00087FA00E099E7002332A928463693FFF716
:100ED000DAFA33A8FFF7C6FA44A84CF0A7FC20467C
:100EE0004CF0A4FC38A84CF0A1FC1C4938A8FFF732
:100EF00045FA38A90C48FFF7E3FD05461849204696
:100F0000FFF73CFA174944A8FFF738FA02220DAB65
:100F10000D9433A80E9201228DF8C82093E80600A4
:100F2000FFF756FA22E068E79C14002448A4090859
:100F3000BBA40908C5A40908DBA40908E2A40908A0
:100F4000E9A40908F0A40908FAA4090801A50908F8
:100F500008A5090812A5090819A5090820A5090866
:100F60002BA5090836A5090860A40908002332A9A1
:100F700028463693FFF787FA33A8FFF773FA44A899
:100F80004CF054FC20464CF051FC38A84CF04EFC80
:100F9000AA4938A8FFF7F2F938A9A948FFF790FD48
:100FA0000546A8492046FFF7E9F901220FAB0F9447
:100FB00033A8109202228DF8C82093E80600FFF7AC
:100FC00007FA00E0BEE6C82328460DEB030136937E
:100FD000FFF759FA33A8FFF745FA20464CF026FCF4
:100FE00038A84CF023FC984938A8FFF7C7F938A96E
:100FF0009348FFF765FD064694492046FFF7BEF982
:10100000012211AB119433A8129202223EAD8DF849
:10101000C82093E80600FFF7DBF901E0284692E6D6
:10102000C82330460DEB03013693FFF72CFA33A8A3
:10103000FFF718FA28464CF0F9FB38A84CF0F6FBFD
:10104000834938A8FFF79AF938A97D48FFF738FD9A
:10105000044680492846FFF791F9012213AB139506
:1010600033A8149202228DF8C82093E80600FFF7F7
:10107000AFF900E0D2E7C82320460DEB0301369319
:10108000FFF701FA33A8FFF7EDF928464CF0CEFB45
:1010900038A84CF0CBFB704938A8FFF76FF938A996
:1010A0006748FFF70DFD04466C492846FFF766F9CF
:1010B0006B4944A8FFF762F9022215AB159533A8D6
:1010C00016928DF8C82093E80600FFF781F903E037
:1010D00044A84CF0ABFBA1E7C82320460DEB03016D
:1010E0003693FFF7D0F933A8FFF7BCF944A84CF0CA
:1010F0009DFB28464CF09AFB38A84CF097FB5949C9
:1011000038A8FFF73BF938A94D48FFF7D9FC04464A
:1011100052492846FFF732F9514944A8FFF72EF902
:10112000022217AB179533A818928DF8C82093E8C0
:101130000600FFF74DF900E0CAE7C82320460DEB93
:1011400003013693FFF79FF933A8FFF78BF944A803
:101150004CF06CFB28464CF069FB38A84CF066FB61
:10116000414938A8FFF70AF938A93548FFF7A8FC24
:1011700004463E492846FFF701F93D4944A8FFF7D8
:10118000FDF83C494AA8FFF7F9F8032219AB199575
:1011900033A81A9202228DF8C82093E80600FFF7C0
:1011A00017F903E04AA84CF041FB91E7C823204619
:1011B0000DEB03013693FFF766F933A8FFF752F9F9
:1011C0004AA84CF033FB44A84CF030FB28464CF0C6
:1011D0002DFB38A84CF02AFB274938A8FFF7CEF89A
:1011E00038A91748FFF76CFC044624492846FFF746
:1011F000C5F81A4944A8FFF7C1F819494AA8FFF7EA
:10120000BDF81F4950A8FFF7B9F8124956A8FFF7D3
:10121000B5F805221BAB1B9533A81C9202228DF852
:10122000C82093E80600FFF7D3F82BE056A84CF04F
:10123000FDFA50A84CF0FAFAB4E700BF41A509083E
:101240009C140024E2A409084BA50908E9A4090894
:1012500055A5090860A5090868A50908BBA40908DF
:10126000C5A4090873A509087EA5090888A5090869
:101270008FA5090897A50908A4A50908DBA40908F2
:10128000B2A50908C82320460027DFF828A30DEBE4
:1012900003013693FFF7F7F833A8FFF7E3F856A8F2
:1012A0004CF0C4FA50A84CF0C1FA4AA84CF0BEFA6F
:1012B00044A84CF0BBFADFF8EC8228464CF0B6FAB2
:1012C00038A84CF0B3FAAE4B32A853F827904946F1
:1012D000FFF754F8514632A84CF086FB014638A877
:1012E0004CF03AFB38A94046FFF7EAFB8346A54994
:1012F0002846FFF743F8A44944A8FFF73FF8A3495D
:101300004AA8FFF73BF803231D952DA83EAC1E937A
:1013100002238DF8B0301DAB93E80600FFF758F8B4
:101320000CE04AA84CF082FA44A84CF07FFA204620
:101330004CF07CFA38A84CF079FAACE12CAEC8231A
:10134000584631463093FFF79EF82DA8FFF78AF8EC
:101350004AA84CF06BFA44A84CF068FA20464CF0CE
:1013600065FA38A84CF062FA32A84CF05FFA4946A8
:1013700032A8FFF703F8864932A84CF035FB014646
:1013800038A84CF0E9FA38A94046FFF799FB8346A4
:101390007E492046FEF7F2FF7E4944A8FEF7EEFFA5
:1013A0007D494AA8FEF7EAFF03231F942DA8209346
:1013B00002238DF8B0301FAB93E80600FFF708F862
:1013C00000E0AEE7C823314658463093FFF75BF89C
:1013D0002DA8FFF747F84AA84CF028FA44A84CF08B
:1013E00025FA20464CF022FA38A84CF01FFA32A811
:1013F0004CF01CFA494632A8FEF7C0FF674932A8F4
:101400004CF0F2FA014638A84CF0A6FA38A940464A
:10141000FFF756FB81465B492046FEF7AFFF5A496E
:1014200044A8FEF7ABFF59494AA8FEF7A7FF0323DC
:1014300021942DA8229302238DF8B03021AB93E89C
:101440000600FEF7C5FF00E06BE7C82331464846BB
:1014500001373093FFF717F82DA8FFF703F84AA8D4
:101460004CF0E4F944A84CF0E1F920464CF0DEF9E8
:1014700038A84CF0DBF932A84CF0D8F9062F7FF4ED
:1014800022AF474938A8FEF779FF38A94548FFF74A
:1014900017FB054644492046FEF770FF3D4944A826
:1014A000FEF76CFF0223239433A824938DF8C830F1
:1014B00023AB93E80600FEF78BFF00E09DE44FF4BA
:1014C000967332A928463693FEF7DDFF33A8FEF760
:1014D000C9FF44A84CF0AAF920464CF0A7F938A857
:1014E0004CF0A4F9314938A8FEF748FF38A92D4837
:1014F000FFF7E6FA05462C492046FEF73FFF25494F
:1015000044A8FEF73BFF0223259433A826938DF8C9
:10151000C83025AB93E80600FEF75AFF00E06CE404
:101520004FF4967332A928463693FEF7ACFF33A8E2
:10153000FEF798FF44A84CF079F920464CF076F974
:1015400038A84CF073F91A4938A8FEF717FF38A9E4
:101550001448FFF7B5FA054613492046FEF70EFF7B
:101560000123279433A8289302238DF8C83027AB92
:1015700093E80600FEF72CFF1EE0FFF7E3BB00BF79
:101580007CA40908F0A40908B2A50908C5A40908A3
:101590009F3B0A088FA50908BBA40908BBA5090839
:1015A000BEA509089C14002420A50908C7A50908A0
:1015B000D3A50908BCA50908002332A928463693FB
:1015C000FEF761FF33A8FEF74DFF20464CF02EF9E1
:1015D00038A84CF02BF9374938A8FEF7CFFE38A9C8
:1015E0003548FFF76DFA054634492046FEF7C6FE3A
:1015F000334944A8FEF7C2FE32494AA8FEF7BEFEB0
:1016000003232C9433A82D93022396E806008DF82B
:10161000C830FEF7DDFE04E04AA84CF007F9FFF7FA
:10162000ECBBC82328460DEB03013693FEF72BFFD6
:1016300033A8FEF717FF4AA84CF0F8F844A84CF07E
:10164000F5F820464CF0F2F838A84CF0EFF85DB011
:10165000BDE8F08FFFF737BBFFF738BBFFF739BBAB
:10166000FFF773BBFFF771BBFFF76FBBFFF76DBBF6
:10167000FFF76BBBFFF769BBFFF767BBFFF765BB06
:10168000FFF763BBFFF761BBFFF75FBBFFF75DBB16
:10169000FFF75BBB4EE632A8FFF71CBB4AE6FAE752
:1016A00048E6F8E7FFF751BBFFF74FBBFFF74DBB2D
:1016B000FFF74BBBDFA509089C140024F0A4090820
:1016C00008A5090860A50908054800230549021D69
:1016D000037183604361C0E90322034A3FF042BDC6
:1016E0009C140024FB04040800000024F4EEC10A4A
:1016F000DFED5B7AF1EE10FA54BFF0EE606AF0EEC7
:10170000416AB4EEE60AF1EE10FAF4EEC10A58BFEF
:10171000F0EE406AF1EE10FA31FE207AB4EEC70A1C
:10172000F1EE10FAF4EEE76A37FE007A36EEC77A89
:10173000F1EE10FAB4EEE77A8CBF87EE266A9FEDE1
:10174000496AF1EE10FA7BD4B4EE660AF1EE10FAB3
:1017500061D130EEC10AC0EE077A9FED437A67EEA1
:10176000877AF5EEC07AF1EE10FA03D59FED3F7A55
:1017700077EE877A9FED3E7AC6EE875A9FED3D7AE7
:10178000F4EEC75AF1EE10FA5DDC9FED3B7AB4EE51
:10179000C76AF1EE10FA56D4F5EEC07AB3EE047AC9
:1017A000F1EE10FA04DBF4EEC77AF1EE10FA4CD445
:1017B000F4EEC77A9FED317AF1EE10FA04DBF4EE25
:1017C000C77AF1EE10FA42D4F4EEC77A9FED2C7A84
:1017D000F1EE10FA04DBF4EEC77AF1EE10FA38D429
:1017E000F4EEC77A9FED277AF1EE10FA04DBF4EEFF
:1017F000C77AF1EE10FA2ED4F4EEC77AF1EE10FAB1
:101800002BDB9FED217AF4EEC77AF1EE10FA4CBF94
:10181000422058207047F4EE660AF1EE10FA0BBF32
:1018200031EE400A30EE600AC0EE077AC0EE077A69
:101830000CBFB0EE007AB1EE007A77EE877A8CE7D3
:10184000DFED087A96E757207047522070474F2007
:10185000704759207047472070475820704700BF95
:1018600017B7D13800000000000070420000B443F8
:1018700000007F439A99593F8FC2F53D00003442E2
:101880000000B4420000204300007A4308B5074A34
:101890002921074836F095F928B906490648BDE8D8
:1018A000084038F049BB0549F8E700BF4824012447
:1018B000B41400241CA60908B03001242CA6090881
:1018C0002DE9F0412DED048B9FED2F8A002584B08A
:1018D0000746B0EE489A0E46F0EE488A2C46DFF8EE
:1018E000B080DFED2A9ABD4235DA0DF10E030DF11D
:1018F0000A0202A94046009303AB36F091F9BDF805
:101900000E30322B22D907EE903ABDF80830013460
:1019100007EE103AF8EEE77ABDF80A30B8EE477AEB
:10192000C7EE276A07EE103ABDF80C30B8EE477ADA
:10193000E6EEA98AC7EE276A07EE103AB8EE477AB4
:10194000A6EEA99AC7EE276AA6EEA98A3046013507
:1019500038F03CFCC7E784B107EE904AB8EEE70ADE
:1019600088EE001AC9EE000A88EE800A04B0BDECC9
:10197000048BBDE8F041FFF7B9BE582004B0BDECC0
:10198000048BBDE8F08100BF0000000000007F4331
:10199000B41400240122C021014836F0D6B800BF9B
:1019A000B414002400F136020023C1540133092B82
:1019B000FBD109309042F7D170475723522255216D
:1019C00080F83630472380F8372080F838305923A4
:1019D0004273462280F839304F238275442280F8C2
:1019E0003A304223C2774C2280F83B30017180F8B4
:1019F000282080F83130704710B504465821FFF791
:101A0000D1FF2046FFF7D9FF10BD0A4600F136018D
:101A100002F0FABC052905D8082A9EBF01EBC101D6
:101A200009188B547047052906D8082A04D801EBF9
:101A3000C1010144885C704758207047704700001E
:101A40000148FFF7D9BF00BFBC14002400F1080310
:101A500073B50360044608460D4651F031FA0F286D
:101A600005EB0006019007D9002201A920464BF0A2
:101A7000B9FE019B2060A3603246294620684BF0E6
:101A800005FF019B2268002120466360D15402B00B
:101A900070BD00002DE9F043D0E9003685B007465F
:101AA0009E424DD0F61A2A4B0020F6105E43D1E933
:101AB0000035ED1AAB10B3423FD11C460390CDE97F
:101AC000010083B1B3F1804F01D34CF09DF828465B
:101AD0003FF09AFD05440023019003952CB140F896
:101AE000043B013CFAE73046F4E74FF01808029552
:101AF000B44209DA3868019D08FB040001F078FD62
:101B000045F824000134F3E71F254FF01808DFF8EB
:101B100044900024B44207DA3868494608FB0400C0
:101B200001344BF0C5FFF5E70F2038F04FFB013DC6
:101B3000EFD101A8FEF7E8FC012005B0BDE8F08375
:101B40000020FAE701A8FEF7DFFC4BF0EDFB00BF39
:101B5000ABAAAAAA83A509082DE9F0432DED088BAD
:101B600099B00AEE100AA84906A8FFF76FFF06A869
:101B700000F054FA07EE900ADFEDA49A06A8F8EEFA
:101B8000E77A87EEA99A4BF051FEA14906A8FFF724
:101B90005DFF06A800F042FA08EE100A06A84BF016
:101BA00045FE9C4906A8FFF751FF06A800F036FA4B
:101BB00008EE900A06A84BF039FEB5EEC09AF1EE99
:101BC00010FA64D9F8EEC87A87EEA98AB5EEC08A11
:101BD000F1EE10FA5BD9F8EEE87AC7EEA98A28EEA2
:101BE000087A79EE4A7A78EEA86AA8EEA87A66EEC4
:101BF000886AA7EEE77AC7EE267AB7EE007AF4EEA7
:101C0000C77AF1EE10FA49D5BFEE007AF4EEC77A42
:101C1000F1EE10FA77FE877A17EE900A4DF042FE49
:101C200009EE900A4DF0A4FD0BEE100A19EE900A91
:101C30004DF0EAFD18EE901A0AEE900A1AEE100A1C
:101C40004DF086FEA8EE0B9A68EE2A7A08EE900A0E
:101C500017EE900A19EE101A4DF07AFE07EE900A70
:101C60006D4906A878EEE78AFFF7F0FE4FF0FF33E4
:101C700006A8B7EEE87A1A469FED618B27EE087B3F
:101C8000F7EEC77B17EE901A01F0C8FC09E09FED54
:101C9000639AF3EE048AB0EE498AA0E7F0EE477A41
:101CA000BAE7804606A84BF0C1FD5D4906A8FFF7DC
:101CB000CDFEB7EEE97A4FF0FF3306A827EE087B9A
:101CC0001A46F7EEC77B17EE901A01F0A7FC0746FD
:101CD00006A84BF0ABFD534906A8FFF7B7FE3B46FD
:101CE0004246002106A801F099FC814606A84BF067
:101CF0009DFD494906A8FFF7A9FE49490CA8FFF731
:101D0000A5FE484912A8FFF7A1FE00234820029330
:101D1000CDE900333FF078FC00F148030446054666
:101D200000260090029306AB9919CDB918361835E4
:101D3000482EF8D112A801954BF078FD0CA84BF075
:101D400075FD06A84BF072FD00230C20CDF8209005
:101D50000593CDE90687CDE903333FF055FC03E059
:101D600028464BF0E9FEE1E706AA034600F10C0421
:101D7000039003CA059418601068596003A998601D
:101D800068460494FFF786FE2AE04BF005FAA54268
:101D900004D0204618344BF049FDF8E74BF0F6FB31
:101DA0004BF03AFA009808B13FF056FC12A84BF0FD
:101DB0003DFD0CA84BF03AFD06A84BF037FD4BF06B
:101DC000B3FAEFE703A8FEF79FFB6846FEF74AFB6E
:101DD000F5E7F1E7F0E7EFE7EEE7EDE7ECE7F1E74E
:101DE000044603A8FEF790FB6846FEF73BFB20463F
:101DF00019B0BDEC088BBDE8F08300BFAFF30080E5
:101E0000F8C1631ADCA54C4038A609080000C84296
:101E100047A6090856A6090846A509080000404239
:101E200050A509085AA5090843681A6803681B6881
:101E30009B1A01FB03F05A2390FBF3F0104480F34C
:101E40000C00704700F1080373B5044603600D46AB
:101E5000E1B1084651F034F80F2805EB0006019077
:101E600007D9002201A920464BF0BCFC019B206051
:101E7000A3603246294620684BF008FD019B22688A
:101E8000002120466360D15402B070BD01484BF080
:101E9000CBFE00BFEDA50908F0B5ADF5815D0446A8
:101EA0000E46174683B04FF48052FF210AA850F027
:101EB00007FB20463AF09CFD054620463AF09AFD85
:101EC0002A180AA94FF48053A2F5805220463AF00E
:101ED000BBFD3346164A2021009702A850F012FDA0
:101EE00002A90AA850F0EAFD20463AF081FD054615
:101EF00020463AF07FFD29184FF480522046A1F584
:101F000080513AF05BFE20463AF072FD05462046CD
:101F10003AF070FD2A184FF480530AA9A2F58052B6
:101F200020463AF0B5FD0DF5815D03B0F0BD00BF70
:101F300080A709082DE9F041ADF5805D06460F4602
:101F4000154686B0DFF860803AF052FD0446304610
:101F50003AF050FD22184FF4805306A9A2F58052A2
:101F6000304601AC0F4E3AF06FFD0E4906A852F014
:101F70001DF860B1234602AA414650F02DFD02280B
:101F80000BD1394602A850F0BFFD30B9256828466C
:101F90000DF5805D06B0BDE8F0813146002052F0BD
:101FA00005F8E6E7276F0A0875A7090870B5064621
:101FB0000C466CB1E1683046FFF7F8FF04F1100001
:101FC000A5684BF033FC20463FF046FB2C46F0E77B
:101FD00070BD10B504468168FFF7E8FF204610BDCC
:101FE000F8B5061D0F468568344655B1394605F1EA
:101FF0001000FEF7A8FB10B92C46AD68F5E7ED68B8
:10200000F3E7A64205D004F110013846FEF79BFB2A
:1020100008B13046F8BD2046FCE7000008B501468F
:102020000448FFF7DDFF044B984214BF806A00208C
:1020300008BD00BFF8140024FC1400242DE9F04171
:1020400004460F4690468D680E1D01205DB105F1D6
:1020500010014046FEF777FB18B1AB682E461D46CF
:10206000F4E7EB68FAE7A0B1FB68B34204D125605E
:1020700066602046BDE8F08130464BF0FBFA05462D
:10208000414605F11000FEF75EFB20B100232360FE
:10209000EEE73546F4E7C4E90050EAE72DE9F347F7
:1020A00000F1040907468A4685684C4665B15146E9
:1020B00005F11000FEF747FB18B9AB682C461D462A
:1020C000F4E7EB682546F9E7A14506D004F11001D5
:1020D0005046FEF738FB002839D038203FF094FAFC
:1020E00000F110068046514630464BF035FC102278
:1020F000002108F1280050F0E3F90023A14588F8F9
:10210000343029D17B693BB13C69314604F1100080
:10211000FEF719FB002871D1324639466846FFF7B1
:102120008DFFDDE90054002C5FD0002D5BD1A1456F
:1021300059D004F110013046FEF705FB4B4622460C
:1021400041464BF099FA7B6901337B61444604F1C7
:10215000280002B0BDE8F08704F1100A304651466D
:10216000FEF7F1FA0546E0B1FD68AC4217D0204613
:102170004BF080FA314682461030FEF7E4FA30B177
:10218000DAF80C500DB1A24625465446CBE732464C
:1021900039466846FFF752FFDDE9005AF5E7AA46DF
:1021A000F3E731465046FEF7CEFAF8B13B699C4260
:1021B0000CD020464BF042FA054600F110013046A3
:1021C000FEF7C1FA20B1E26852B12B461C46AAE7DD
:1021D000324639466846FFF731FFDDE90053F5E73F
:1021E00023461546F2E70120A8E72C4630464BF07F
:1021F0001DFB40463FF030FAA046A7E7002C96D1E1
:10220000F4E7000070B586B00E46014615466846F4
:102210001C46FFF717FE69460948FFF73FFF9DF888
:10222000283084600373C0E9006568464BF0FEFA0D
:1022300006B070BD68464BF0F9FA4BF075F800BF78
:10224000F814002410B58AB0354904A80AACFFF789
:10225000F9FD04A8FFF7E2FE009004A84BF0E6FAAF
:10226000304904A8FFF7EEFD04A8FFF7D7FE44F8B5
:10227000240D04A84BF0DAFA2B4904A80294CDF8F7
:102280000CD0FFF7DFFD04A92848FFF707FF04463D
:102290006FF03B0102A8FFF7C7FD206004A84BF0D8
:1022A000C5FA234904A8FFF7CDFD04A91F48FFF78D
:1022B000F5FE04466FF01D0102A8FFF7B5FD206092
:1022C00004A84BF0B3FA1B4904A8FFF7BBFD04A90F
:1022D0001648FFF7E3FE04461E2102A8FFF7A4FDFF
:1022E000206004A84BF0A2FA134904A8FFF7AAFD46
:1022F00004A90E48FFF7D2FE04463C2102A8FFF7CE
:1023000093FD206004A84BF091FA0AB010BD04A818
:102310004BF08CFA4BF008F8F9E7F8E7F7E700BF65
:1023200088A509088FA509084BA70908F8140024F7
:1023300058A7090865A709086DA709082DE9F04104
:10234000002494B06C4E6D4FDFF8EC8156F82450A9
:1023500000224FF440634FF4806100922846FFF75B
:1023600051FF29460EA8FFF76DFD39460EA84BF028
:102370003BFB014602A84BF0EFFA0EA84BF056FAD1
:1023800001230022029800934FF440631146FFF7A7
:1023900039FF29460EA8FFF755FD41460EA84BF020
:1023A00023FB014608A84BF0D7FA0EA84BF03EFAE3
:1023B00001230022089800934FF440631946FFF769
:1023C00021FF08A801344BF031FA02A84BF02EFA95
:1023D000062CBBD100254A4E2C4656F82500013567
:1023E00000944FF4406300224FF48061FFF70AFF2E
:1023F000122DF2D100944FF4406300224FF480611B
:1024000040480125FFF7FEFE00944FF44063002290
:102410004FF480613C48FFF7F5FE009440F6FF73EF
:1024200000224FF400613948FFF7ECFE009440F6BB
:10243000FF7300224FF420613548FFF7E3FE00955B
:10244000B4230A225A213348FFF7DCFE009440F6F9
:10245000FF7300224FF400612F48FFF7D3FE009472
:1024600040F6FF7300224FF420612C48FFF7CAFEAC
:102470000095B4230A225A212948FFF7C3FE00948D
:1024800040F6FF7300224FF400612648FFF7BAFEC2
:10249000009440F6FF7300224FF420612248FFF7BA
:1024A000B1FE0095214DB4230A225A21204804355B
:1024B000FFF7A8FE1F4EAC68AC420AD0A26A3046B5
:1024C0002169FFF737FDA06220464BF0B7F80446BC
:1024D000F2E7FFF7B7FE14B0BDE8F0810EA84BF0AD
:1024E000A5F94AF021FF0EA84BF0A0F902A8F6E7E3
:1024F00008A8F9E7FAE700BF68A60908C8A609080E
:1025000080A60908BBA40908C5A40908CDA6090826
:10251000D9A60908E8A60908F6A6090802A7090825
:1025200011A709081FA709082CA70908F8140024F7
:102530003CA70908B815002435640A08F7B5234EEE
:102540000446019101462248FFF74AFDB0423BD0C4
:10255000019A016B8A42A8BF0A46C16AACBF00F16A
:10256000300301AB9142826AA8BF00F12C031B68C3
:102570009342019328D08362204616494BF098FA83
:10258000C0B9FFF75FFE144D37F00EFE2A68801ABF
:10259000B0F57A7F18D90E4B104FDC68B44210D0DA
:1025A000A26A38462169FFF777FC20464BF046F8CF
:1025B0000446F3E70A4920464BF07AFA0028E0D0B7
:1025C000E1E737F0F1FD286003B0F0BDFC14002412
:1025D000F814002488A5090810150024B815002453
:1025E0008FA50908054800230549021D0371836072
:1025F0004361C0E90322034A3EF0B4BDF81400244D
:10260000D31F04080000002400F1080373B504463A
:1026100003600D46E1B1084650F052FC0F2805EB6F
:102620000006019007D9002201A920464BF0DAF8F4
:10263000019B2060A3603246294620684BF026F9B2
:10264000019B2268002120466360D15402B070BD16
:1026500001484BF0E9FA00BFEDA5090810B50446A2
:102660004EF088FA03681BB94EF084FA23680360C1
:10267000204610BD70B506460C464CB1E1683046A8
:10268000FFF7F8FFA56820463EF0E6FF2C46F4E78A
:1026900070BD70B58B68044616460D1D012053B100
:1026A0001A7C1D463078904239BF9A680120DA685A
:1026B00000201346F3E790B1CA68AA4203D1C4E9E7
:1026C0000035204670BD28464AF0D4FF3378027C9E
:1026D0009A424FF00003F2D3C4E90003F1E7284621
:1026E000F4E700002DE9F04FAC4B01225821AC4833
:1026F0002DED028BF5B01A70FFF754F9A9493EA8E9
:10270000FFF782FF3EA9A648FFF77FF93EA84BF0EE
:102710008DF8A5493EA8FFF777FFA44944A8FFF725
:1027200073FFA3494AA8FFF76FFFA24950A8FFF71C
:102730006BFFA14956A8FFF767FFA0495CA8FFF708
:1027400063FF9F4962A8FFF75FFF9E4968A8FFF7F4
:102750005BFF9D496EA8FFF757FF0023D820169313
:10276000CDE914333EF050FF00F1D803044605468E
:102770000026149016933EAB9919DDB9183618351A
:10278000D82EF8D115956EAC38AD2046183C4BF0DC
:102790004DF8AC42F9D10022DDE91434CDE917221D
:1027A000E41A1992E310894C5C4337D020463EF07E
:1027B0002BFF1EE028464BF0BFF9DFE74AF0ECFCA8
:1027C000A54204D0204618344BF030F8F8E74AF020
:1027D000DDFE4AF021FD149808B13EF03DFF6EACDD
:1027E00038AD2046183C4BF021F8AC42F9D124E337
:1027F000F1E703461D19179319952CB11846224687
:1028000000214FF05DFE03461895DDE91421914249
:102810001CBF01221A7037F0C7FC01E02346E9E72C
:1028200001230C90002214A900934FF4827017AB7F
:1028300001F0F6FC6549E620DDE91432D21A0023E6
:10284000D2104A43194601F059FD61493EA8FFF7ED
:10285000DBFE604944A8FFF7D7FE17E00225C5F16B
:10286000030318255D433EAB5C19EB085A4D5D43ED
:102870006FF0170325F0604503FB0545AC4200F0FF
:10288000C980183C20464AF0D1FFF7E753494AA8CF
:10289000FFF7BAFE01E00125E1E7514950A8FFF733
:1028A000B3FE01E00025DAE7032302229FED4D8A03
:1028B000CDE9102304230A9300230493374B1B789C
:1028C000002B00F09C8200230993344B1B78002BD3
:1028D00000F0908210AB099A53F82230012B0DD0F2
:1028E000F3EE047A022BB2EE047A47FE277A17EE53
:1028F000900AFFF731F904E00123E5E7F0EE487AAA
:10290000F5E7C82037F062FC2CAB48223649184660
:102910004FF0D8FC00220B900592204B1B780793B8
:10292000002B00F03D820B9B20A8059A9958FFF7D9
:102930006BFEDDE92043E518AC4217D014F8010B1B
:1029400053F0B0FDC2B2552A09D0522A07D0462A08
:1029500005D0442A03D04C2A01D0422AECD128AB1E
:10296000012126A826934AF069FF01E04622F6E7F6
:102970001E4926A84BF038F801461AA84AF0ECFF89
:1029800026A84AF053FF20A84AF050FF1B9B012BBA
:1029900049D84FF0FF3603968DE000BFC0150024E4
:1029A000BC140024286F0A0800A8090806A8090812
:1029B0000CA8090812A8090818A809081EA80908DF
:1029C00024A809082AA8090830A80908ABAAAAAAB5
:1029D00036A809083AA80908ABAAAA0A3EA8090815
:1029E00042A809080000000098A709089B6B0A0884
:1029F00026A84AF01BFF20A84AF018FF50A84AF06A
:102A000015FF4AA84AF012FF44A84AF00FFF3EA85B
:102A10004AF00CFF179808B13EF01EFE14A8FDF70F
:102A200021FD0AE2E7E71A9B187853F03BFD423894
:102A30001328AED8AD4B1B56002B039346DB4FF04B
:102A4000FF3301221AA926A84BF0B6F8269C4EF0B7
:102A500091F803680F934EF08DF800230A220EA917
:102A60000360204651F080FB0E9B06469C420FD12E
:102A70009F484BF0F1F804460FA8FFF7EFFD26A89A
:102A80004AF0D4FE20464AF087FB4AF0C5FB1BE023
:102A90004EF070F80368222B02D195484BF00CF9E8
:102AA0000FA8FFF7DBFD26A84AF0C0FE26EAE6766F
:102AB000082EA8BF08260B9B0920059A13445B68C3
:102AC00006933EF0A1FD04E00426EFE74FF0FF3649
:102AD000F1E7074600F1090504464FF00009854B70
:102AE0004FF00308069A53F82930D3180893089832
:102AF00000F0F8FD02E00446C1E7C4E71E2037F00D
:102B000065FB28210520FEF7DBFEAC42824634D06F
:102B100004B120700134B8F10108E8D109F10109CC
:102B2000B9F1030FDBD10DF1980927AB89F80480C7
:102B3000CA46C9F80880C9F8148008970693C9E9FD
:102B40000333089BDAF808B09C4200F0BF8013F80A
:102B5000018BB8F1580F0893F3D027ADBBF1000FEC
:102B600035D09BF8103043453ABFDBF80C30AB460C
:102B7000DBF808305D469B46F0E7E41B631C03D19D
:102B80005D484BF081F8D3E0002C14BF25460125A9
:102B9000651902D21DB9AB4605E04FF0FF35284656
:102BA0003EF032FD83461BEB040F18BF0BF804A068
:102BB00024B12246394658464FF01EFC01345C448D
:102BC00017B138463EF048FD5D445F46A3E7069BDB
:102BD0009D4202D02B7C434533D918203EF014FD92
:102BE000069B834680F8108000F110029D424FF052
:102BF0000000CBF8140028D1DAF8143023B1DAF849
:102C000010100B7C434509D3494612A8FFF741FD3C
:102C1000DDE91251002954D0002D50D1069B994274
:102C20004DD0087C404594BF00200120069B0A46F9
:102C300059464AF021FDDAF814300133CAF814304D
:102C40005D466B6901336B617BE72B7C0D92984588
:102C50001AD2DAF80C309D420CD028464AF00AFD10
:102C6000037C0D9A434508D2C368002B0ABF054672
:102C70002B46002329461D46CCE7494612A8FFF7FC
:102C800008FDDDE91235F5E71BD9DAF810108D42A1
:102C90000AD028464AF0D2FC037C0D9A434505D958
:102CA000EB6853B9294618460546B3E7494612A8CA
:102CB000FFF7EFFCDDE91201F6E70146F4E70798BC
:102CC000B4E75846AB463EF0C7FCB9E7DAF80C006B
:102CD000582400250DF19C0840450FD04369AB42B4
:102CE000C4BF047C1D464AF0A9FCF5E7ECA709081F
:102CF00046A80908E0A709084BA80908594626A8CC
:102D0000FFF7B8FC17B138463EF0A6FC039B002B3A
:102D100015DA1B9B3BB31A9B1A7822AB012120A822
:102D200020934AF08BFD20E0289926A8FFF7A2FC0B
:102D300017B138463EF090FC1AA85DE6FCE7324633
:102D400003994648FEF76FFE582805D0A04203D0ED
:102D5000582C0CBF044645242346324603993F486D
:102D6000FEF758FED5E74622D7E73D4920A84AF0AE
:102D70003BFE014648464AF0EFFD49463748FEF71C
:102D800044FE48464AF052FD20A84AF04FFD1AA8DA
:102D90004AF04CFD059B0833482B05937FF4BDADED
:102DA000049B4FF48270013304930499DDE91723E7
:102DB0009B1A8B42C4BF012353540123049A14A9C4
:102DC000009317AB01F02CFA264CDDE914239B1A73
:102DD000DB105C4337F0E8F90C9B22460499C31AD8
:102DE000E62001F08BFAC82037F0F0F9099B002BA0
:102DF0003FF482AD0A9B013B0A937FF45FAD1A4B0F
:102E0000002250A81A704AF011FD4AA84AF00EFD9F
:102E100044A84AF00BFD3EA84AF008FD179808B1F7
:102E20003EF01AFC14A8FDF71DFB75B0BDEC028B3B
:102E3000BDE8F08F3EA84AF0F9FC4AF075FA032588
:102E40000DE548464AF0F2FC20A84AF0EFFC73E793
:102E5000FAE771E7D2E5DDE5E0E500BFBC14002448
:102E60009B6B0A08ABAAAAAAC015002408B501F0FA
:102E7000C7FB0520BDE8084037F0A8B973B5134C6F
:102E80004FF4F072124D4FF44871124B204601F08E
:102E900019FD2A46104920463EF064F9812037F09A
:102EA00055F9064682200D4C37F050F9DD23F2B279
:102EB0000B490093C3B2204632F088FC2A460949E8
:102EC000204602B0BDE870403EF04CB9A415002485
:102ED00000000024100000240F49040814150024E9
:102EE00084260124895B070837B53B4C4FF4E13158
:102EF0003A4D204635F0BEFC642037F067F938497A
:102F0000204637F001F80A220921204637F05DF803
:102F10002946204636F0F8FF0A220321204637F0E2
:102F200054F82946204636F0EFFF20462D4C0A2261
:102F3000002137F04CF8204601F012FD1FF044FA52
:102F4000204601F00DFD09F0B9FB0546264820F0AA
:102F5000F5FDC0F307238DF80000C0F307408DF89E
:102F600001308DF80200214820F0E8FDC0F307236E
:102F70008DF80400C0F30740009900228DF8060088
:102F800028468DF8053007F09DFC28460022FF21D9
:102F900007F0A7FC2846164D0022019907F0CCFC4B
:102FA000284632F091FC2946204600F091FE114857
:102FB00039F022FDFFF7C2F9FDF740FEFEF766FC8F
:102FC00000F0E8FB00F086FE0B4800F0CBFE03B0FB
:102FD000BDE8304000F0D0BEB030012402A909089D
:102FE00083A80908A415002415121000FFE8E000CA
:102FF00014150024B815002492A80908154810B526
:103000000378BFF35B8F144C13F0010F1AD13EF01D
:10301000B9F8B8B137F0C8F8104B21460122434047
:103020000F4823600B6883EA937300FB032301328C
:10303000B2F51C7F41F8043FF4D10648C4F8C0291A
:103040003EF0C2F8044810BD02483EF0C5FA4AF00E
:103050006BF900BFC4150024C8150024EFBEA5A558
:103060006589076C08B13EF0F7BA70472DE9F04169
:1030700080460C46174606461546B44207D01DB199
:10308000314628464AF068FC18361835F5E7A4EBB7
:1030900008040548E4084443182024F0604400FB79
:1030A0000470BDE8F08100BFABAAAA0A0D4BCB1A91
:1030B0000F2B37B504460D46019306D9002201A90E
:1030C0004AF090FB019B2060A3602A4605492068D6
:1030D0004AF0DCFB019B226800216360D15403B0FD
:1030E00030BD00BF286F0A08D0F8C039B3F51C7F87
:1030F00030B549D300F5637402462D4D136851680D
:1031000003F0004321F000410B43D2F8341681EA6A
:10311000530113F0010318BF2B464B4042F8043B08
:103120009442EBD1021F00F22C64214DD2F890336F
:10313000D2F8941303F0004321F000410B4352F8FE
:10314000041F81EA530113F0010318BF2B46944278
:1031500083EA0103C2F88C33E8D1D0F8BC390268A5
:1031600003F00043124922F000421343D0F8302606
:1031700082EA530213F0010318BF0B465340C0F814
:10318000BC390023C0F8C039D0F8C0395A1C50F8F7
:103190002330C0F8C02983EAD323064800EAC310CD
:1031A0004340054800EAC330584080EA904030BDB3
:1031B000DFB0089980562C9D0000C6EFF8B5D1E924
:1031C000002307460E469B1A5A1C10D001334FF0BD
:1031D000FF30B0FBF3F505FB03F43846FFF784FF3F
:1031E0008442FAD9B0FBF5F033681844F8BDFFF714
:1031F0007BFFF9E738B504460D46AC4204D02046C3
:1032000018344AF013FBF8E738BD00002DE9F84305
:10321000D0E9007406468846E41B9146CF1BE310B4
:10322000244C5C4314BF23460123E418224B39D2BB
:103230009C4237D8BCBB2546EF191AD12A464146D5
:103240003068FFF713FF716800F118024046FFF77E
:103250000DFF0746D6E90001FFF7CCFF3068FFF706
:1032600001FF182303FB0454C6E90057B460BDE80E
:10327000F883494638464AF05FFCDFE749F08CFFA7
:103280005DB938464AF0D2FA2846FFF7EBFE4AF01D
:103290007DF949F0C1FF4AF047F829462846FFF773
:1032A000A9FFF1E71C46182060433EF0ADF9054642
:1032B000C2E700BFABAAAAAAAAAAAA0A2DE9F04FA0
:1032C000002391B080460393CDE901336E4B9842C1
:1032D00007D96E484AF0D8FC01A8FDF7C3F84AF0B8
:1032E00023F8B0B1182404FB00F528463EF08CF911
:1032F0000021024604460846FFF7B8FEDDE9010159
:10330000FFF778FF0198FFF7ADFECDE901442C44AB
:10331000039400274FF0FF36DFF884913C46B84510
:1033200069D04FF0000A4FF0050BCDE90AABFFF76B
:1033300065FE0AA9FFF742FF554B1D5CAC42F4D075
:10334000552D10D0442D0ED04C2D0ED0522D14BF23
:10335000022301239E42E8D000220223CDE9042368
:10336000FFF74CFE03E00023F4E70123F2E704A992
:10337000FFF724FF0CAB59F820402A4601210AA888
:103380000A934AF05BFA21460AA84AF02DFB01464F
:1033900004A84AF0E1FA0AA84AF048FA049B1C780B
:1033A000552C03D1002609E00AA821E0442CF9D0CD
:1033B0004C2C10D0522C14BF02260126DDE902034A
:1033C00098420ED048B9029B1833029304A80137E3
:1033D0004AF02CFAA3E70126F0E704A94AF0ACFB77
:1033E000F1E7014604AA01A8FFF710FFEEE704A8E1
:1033F0004AF01CFA70E70CAC26490AA80A94FFF7B9
:1034000055FE0AA92448FEF700FB0AA84AF00EFA66
:1034100036F0CAFE0025214E1E4FDFF87C80DDE924
:1034200001239B1ADB1073439D4224DA182000FB12
:10343000052000F0A1FB39460AA80A94FFF736FEE2
:103440000AA94046FEF7E1FA0AA84AF0EFF922F08D
:1034500063FB36F0A9FE814636F0A6FEA0EB09001C
:10346000B0F5AF7F05D222F057FB0A2036F0AEFE52
:10347000F2E70135D3E701A8FCF7F4FF11B0BDE88E
:10348000F08F91E790E727E7AAAAAA0AACA8090853
:10349000C8A80908286F0A08BC140024ABAAAAAA65
:1034A000BCA80908F0B587B009F008F907F05EFC80
:1034B00009F004F92BF04CFE06462A492CF02AFAB2
:1034C000022130460A23002203F0E4FF01212648AE
:1034D00033F014F9002842D024493046244D2CF012
:1034E00019FA4FF4FA706C4636F070FE0FCD0FC427
:1034F00095E80300002584E803001B4C01212046C9
:1035000033F08BF91DF82570012120463A4601352C
:1035100033F06AF93946204633F07CF939462046C3
:1035200033F0E1F94FF4967036F050FE39462046FC
:1035300033F0DCF9062DE1D10E4930462CF0EAF9E2
:103540000023092130461A4603F0A4FF40F2DC5064
:1035500036F03CFE07B0BDE8F04000F00DBC064977
:10356000EBE700BFE8A809088C1F002404A909089C
:10357000D0A809082BA9090841A90908F8B50646E9
:103580000024084D55F83410E70041B130464AF0A8
:103590008FFA10B93D442879F8BD0134F2E74FF0B5
:1035A000FF30F9E75CA9090800F1080373B503606F
:1035B000044608460D464FF083FC0F2805EB000635
:1035C000019007D9002201A920464AF00BF9019B7E
:1035D0002060A3603246294620684AF057F9019BD3
:1035E0002268002120466360D15402B070BD000003
:1035F00008B5FFF7C3FF011E0BDB0022C9B2064866
:1036000033F0EEF907EE900AFDEEE77A17EE900A36
:1036100008BD0020FCE700BF8C1F002470B52DED15
:10362000028B86B0054608EE101A014668464AF03D
:1036300083FA294968464AF0D7F904E068464AF017
:10364000F5F849F071FE6846FEF7E8FC0646684664
:103650004AF0ECF8294668464AF06EFA1F49684677
:103660004AF0C2F900E0E9E76846FEF7D7FC0446F5
:1036700068464AF0DBF8294668464AF05DFA184980
:1036800068464AF0B1F900E0D8E76846FEF7C6FCA4
:1036900002E0D3E7D2E7D1E7054668464AF0C6F82C
:1036A000A31B002D07EE903A08BF5A25F8EEE77AE3
:1036B00007EE105AB8EEC77AC8EE076A67EEA67A28
:1036C000FDEEE77A17EE900A304480F30C0006B066
:1036D000BDEC028B70BD00BFD1A60908DDA60908AC
:1036E000ECA6090870B586B0054620496846FFF784
:1036F0005BFF6846FEF792FC064668464AF096F87D
:103700001B496846FFF750FF6846FEF787FC0446F2
:1037100068464AF08BF840F6FF73A41B15496846CB
:103720006C435A2594FBF5F434449C42A8BF1C46D4
:10373000FFF73AFF6846FFF721FF054668464AF063
:1037400075F824EAE4720023E9B207EE902A0A48E9
:10375000F8EEE77A17EE902A33F0CCF906B070BD98
:1037600068464AF063F849F0DFFDF9E788A50908E3
:103770008FA5090883A509088C1F00244FF48063D6
:1037800002220249024832F0B7BE00BFD02B01240A
:103790008C1F002410B5094C4FF46141084835F0E6
:1037A00069F820464FF4614132F0CEFE20464FF0DA
:1037B0008041BDE8104033F0A3BE00BF8C1F002441
:1037C000D02B012410B50446006808B13DF044FF39
:1037D000204610BD00F1080373B503600446084697
:1037E0000D464FF06DFB0F2805EB0006019007D941
:1037F000002201A9204649F0F5FF019B2060A3604B
:103800003246294620684AF041F8019B226800218F
:1038100020466360D15402B070BD0000F0B5FFB027
:103820005D495E4D6846FFF7D5FF5D4906A8FFF785
:10383000D1FF5C490CA8FFF7CDFF5B4912A8FFF749
:10384000C9FF5A4918A8FFF7C5FF59491EA8FFF735
:10385000C1FF584924A8FFF7BDFF57492AA8FFF721
:10386000B9FF564930A8FFF7B5FF554936A8FFF70D
:10387000B1FF54493CA8FFF7ADFF534942A8FFF7F9
:10388000A9FF524948A8FFF7A5FF4C494EA8FFF7EA
:10389000A1FF4F4954A8FFF79DFF42495AA8FFF7DF
:1038A00099FF3F4960A8FFF795FF3B4966A8FFF7DE
:1038B00091FF48496CA8FFF78DFF474972A8FFF7B1
:1038C00089FF3F4978A8FFF785FF00234FF4FC707C
:1038D000AB60C5E900333DF097FE00F5FC7304468C
:1038E000064600272860AB600DEB0701002E32D1A1
:1038F00018371836B7F5FC7FF6D16E6078ACADF1AD
:1039000018062046183C49F091FFB442F9D1334AD9
:10391000334922483DF026FC324C0021D5E90052C3
:10392000C4E90011521B304DA160D2105543284606
:1039300001D03DF069FE46192060A6601DB12A46FF
:1039400000214EF0BDFD254A2849264866603DF01D
:1039500009FC7FB0F0BD30464AF0EEF8C8E749F008
:103960001BFCB44204D02046183449F05FFFF8E74E
:1039700049F00CFE49F050FC286808B13DF06CFE9F
:1039800078ACADF118052046183C49F04FFFAC4229
:10399000F9D149F0C9FCEFE794A90908D82000241F
:1039A000D32D0A0896A9090898A909089BA909080E
:1039B0009EA909085E740A086FAD0908A1A9090843
:1039C000A4A90908A7A90908A9A90908ACA909086F
:1039D000AFA90908B2A90908B5A90908000000247F
:1039E00065040408E8200024ABAAAAAAC537040885
:1039F0002DE9F04F0123594F594E91B03B700022F1
:103A0000D6E90031994202D003F8012BFAE7554C70
:103A10004FF00009544DDFF85881D4E900329A4242
:103A20001EBF336801221A70C5F8009036F0BCFB47
:103A300001232A684B49824600934FF48270484B19
:103A400000F0EEFB4946E620D4E90032D21A4B469C
:103A5000DFF82091D21008FB02F200F04FFC3B7817
:103A6000002B6DD0D4F800B063682A68A3EB0B0379
:103A7000DB1008FB03F39A4262DA182348465343EB
:103A80000BEB03010393FDF7D9FF039B5BF80330B6
:103A9000187852F007FD06ABC2B2012104A80493C6
:103AA00049F0CCFE314904A849F09EFF01460AA81E
:103AB00049F052FF0AA94846FDF7A7FF0AA849F0B6
:103AC000B5FE04A849F0B2FE32682B680221D15439
:103AD00036F06AFB834636F067FBA0EB0B00B0F5CF
:103AE000C87F05D222F018F80A2036F06FFBF2E703
:103AF0003B782BB32B684FF48270D6E90012013368
:103B0000521A2B609342BCBF0122CA5401232A6877
:103B100000931449124B00F083FBD5F800B0D4E9B0
:103B20000032D21AD21008FB02F2039236F03CFBAC
:103B3000039AA0EB0A035946E62000F0DFFB8EE76C
:103B400000233B7011B0BDE8F08F0AA849F06EFE6B
:103B500004A849F06BFE49F0E7FBF9E7C115002422
:103B6000E8200024D8200024E42000249B6B0A08CD
:103B7000ABAAAAAABC1400247047FFF74FBE10B529
:103B80000446084652F08EFC462817D005DC422831
:103B90001AD044281BD0C2230DE0522811D055283A
:103BA00007D04C28F7D1C2232360502363602046FE
:103BB00010BD4FF4897323600023F7E74FF4897336
:103BC000F2E74FF4B173EFE74FF4D973ECE74FF43A
:103BD00089732360A023E9E700F1080373B5044665
:103BE00003600D46E1B108464FF06AF90F2805EB76
:103BF0000006019007D9002201A9204649F0F2FDF4
:103C0000019B2060A36032462946206849F03EFEB1
:103C1000019B2268002120466360D15402B070BD30
:103C200001484AF001F800BFEDA509087FB520F072
:103C30007AFA01466846FFF7CFFF6846FCF788FD31
:103C4000684649F0F3FD07B05DF804FB684649F0AB
:103C5000EDFD49F069FB38B504460D46002206F03B
:103C600023FE29462046002206F025FE294620464E
:103C7000002206F00BFE294620460022BDE838400F
:103C800006F00BBE38B5114C2568CDB908F016FD0D
:103C900002F0B6F83C221421206003F070FB20688B
:103CA0004FF4BE724FF43E7103F0A8FB2068082168
:103CB000FFF7D1FF29462068BDE8384004F0C9BDB0
:103CC0002846BDE8384007F051B800BFF420002472
:103CD0007047000013B508F0F1FC04461D481FF0C2
:103CE0002DFFC0F307238DF80000C0F307408DF8C7
:103CF00001308DF8020018481FF020FFC0F30723A1
:103D00008DF80400C0F30740009900228DF80600EA
:103D100020468DF8053006F0D5FD20460022FF2113
:103D200006F0DFFD01990022204606F005FE0B4C4F
:103D300008F0C4FC2BF00CFA0623002202212060BC
:103D400003F0A8FB0649206802B0BDE810402BF044
:103D5000E1BD00BF15121000FFE8E000F8200024CC
:103D600080AA0908034B0146186808B12BF0D2BDA0
:103D7000704700BFF82000242DE9F04F3A4C8BB07B
:103D8000FFF780FFDFF8F4A002AE06ADDFF8DC90AD
:103D9000DFF8EC8094E80F00103486E80F0094E818
:103DA0000F0085E80F003148002421F02CF830483E
:103DB0001FF0C4FEC0F307238DF80000C0F30740D6
:103DC0008DF801308DF802000099284821F0B0F9F3
:103DD0000A21264821F08EFA0021244821F0E4F936
:103DE0002449224821F074FA23481FF0A7FE8DF8D9
:103DF0000400C0F30723C0F307408DF805308DF8A9
:103E000006000199194821F055FADAF8000026F069
:103E1000FDFD07460022494606F0C8F946224FF448
:103E20003471384603F0EAFA5022142138466243CE
:103E30000A3203F0A4FA38462BF08AF9834656F882
:103E400024102BF067FD584604F08CFC55F8243004
:103E500001340A224146384603F0FCF8042CD4D140
:103E60000BB0BDE8F08F00BFB8A9090804210024F9
:103E700044332200A82C0A08FFF8F500F42000249F
:103E8000ED400408FFF778BF2DE9F04F99B020F01E
:103E90004AF9634904464EF037FE20B9FFF76CFF3C
:103EA00019B0BDE8F08F5F4920464EF02DFE10B9E5
:103EB000FFF7F8FAF4E75C4920464EF025FE10B90A
:103EC00000F0CAFBECE7594920464EF01DFE0CAF4E
:103ED0000646DFF87881002866D1554DFFF7D2FEFF
:103EE0003C46DFF854910FCD0FC40FCD0FC495E8B9
:103EF0000F00504D84E80F00D8F8000026F086FD32
:103F000004460022494606F051F93222DC212046BF
:103F100003F074FA03213C22F023204696FBF1F1D2
:103F20004A4301EB4101711A0A325943143103F03B
:103F300026FA20462BF00CF957F826A083460136C6
:103F400051462BF0E7FC584604F00CFC53460A227D
:103F50002946204603F07EF80C2ECDD1D8F800007B
:103F600026F054FD04460022334906F01FF920468E
:103F700032224FF4347103F041FA4FF49B72142152
:103F8000204603F0FCF920462BF0E2F805462B49C9
:103F90002BF0C0FC284604F0E5FB00230A22284948
:103FA000204603F057F87BE7D8F8000006F0DEFE65
:103FB000D8F800002BF0CCF8224905463846FFF728
:103FC0000BFE2146384649F00FFD014606A849F090
:103FD000C3FC1D4906A849F007FD0146684649F0A3
:103FE000BBFC06A849F022FC384649F01FFC0099AA
:103FF00028462BF08FFC0023092128461A4603F09F
:1040000049FA684649F012FC4AE706A849F00EFC56
:10401000384649F00BFC49F087F9F9E76846F8E7BC
:104020009EAA0908A8AA0908DFA50908B2AA0908D2
:10403000D8A909082D3C040804210024BDAA0908B8
:10404000853E04088DAA090896AA0908F4200024D0
:1040500010B508F033FB094C06F088FE08F02EFB83
:104060002BF076F8064920602BF054FC20680623DC
:1040700000220221BDE8104003F00CBAF820002411
:10408000C6AA090810B508F019FB094C06F06EFE27
:1040900008F014FB2BF05CF8064920602BF03AFC8A
:1040A0002068062300220221BDE8104003F0F2B987
:1040B000F8200024D1AA090810B508F0FFFA094C2D
:1040C00006F054FE08F0FAFA2BF042F80649206098
:1040D0002BF020FC2068062300220221BDE81040BE
:1040E00003F0D8B9F820002477AA09082DE9F04791
:1040F00090B020F018F8424904464EF005FD48B94A
:10410000FFF7A6FF3E4908A8FFF766FD08A8FCF7E1
:104110001FFB1DE03B4920464EF0F6FC48B9FFF777
:10412000B1FF384908A8FFF757FD08A8FCF710FBB6
:104130000EE00922344920464EF030FF70B9FFF7F7
:10414000BBFF214608A8FFF747FD08A8FCF700FBC6
:1041500008A849F06BFB10B0BDE8F0872B4920465A
:104160004EF0D2FC06460028F5D1294CFFF78AFD17
:104170006D4608AFDFF8A090DFF8A0800FCC0FC528
:1041800094E80F00103485E80F000FCC08AD0FC580
:1041900094E80F0085E80F001E4DD9F8000026F0C6
:1041A00035FC04460022414606F000F838224FF460
:1041B0003471204603F022F93C2214212046724338
:1041C0000A3203F0DCF820462AF0C2FF82465DF88E
:1041D00026102BF09FFB504604F0C4FA57F8263007
:1041E00001360A222946204602F034FF082ED4D197
:1041F000B1E708A849F01AFB49F096F8F9E7F8E7A3
:10420000D1A4090894A409089DA40908DDAA0908F5
:1042100008AA0908893E0408F42000240421002487
:104220002DE9F74F334D0E4617462C68002C5AD116
:1042300008F044FA01F0E4FD50224FF43E7128608A
:1042400003F0DCF8234622460521286803F022F912
:1042500006212868FFF7FFFC214628681CF0A0FF14
:10426000072F4FF000084FF0180BCCBFA7F107093C
:104270004FF00009D6E90034E41A1F4BE4105C4308
:10428000A4F10A0323EAE3739945A8BF9946A4EB76
:1042900009040A2CA8BF0A24A04528DA286826F0B9
:1042A000B5FB82461C22402103F0A8F850462AF0B4
:1042B0004FFF09EB080331680BFB03FC009351F837
:1042C0000C1001902BF026FB019A104604F04AFADC
:1042D000009B9F4204D100220221504606F025FB9C
:1042E00008F10108D8E7204606F040FDB8E703B022
:1042F000BDE8F08F10210024ABAAAAAAF0B5234C88
:104300000D46164627682DED028B08EE103A9FB039
:104310004FB908F0D3F92AF01BFF24233A460221B3
:10432000206003F0B7F8002E05F10103B8EE488ACB
:10433000174AC6BF07EE903A9FED167A9FED167AA0
:104340004FF06001C8BFF8EEE77A009606A8C1BF3B
:1043500067EE877A07EE106AF8EEC76A87EEA67AEC
:10436000DFED0E7A88EE276AB7EEC77A8DED027B15
:10437000B7EEC66A8DED046B4EF0C4FA06A920684C
:104380002BF0C8FA1FB0BDEC028BF0BDFC2000245E
:104390005CAA09080000C8420000000000007A443E
:1043A00007B552F07FF84F281BD007DC45281AD0FC
:1043B000472812D0422819D10D4809E0572805D0C6
:1043C00059280CD0522811D10A4801E06FF07F40E3
:1043D00003B05DF804EB1FF0B1BB0748F8E70748EE
:1043E000F6E70748F4E74FF0FF10F1E70548EFE77D
:1043F000DB9834003C4CE70071CC2E000FC4F10078
:10440000227EE600332E2A002DE9F04F794C8DB044
:104410000E46934625680290A5B908F04FF901F0C1
:10442000EFFC4FF482724FF42F71206002F0E6FF30
:104430000221206864232A4603F02CF829462068CC
:1044400004F007FA20684FF0000806F08FFC6A4B72
:10445000089344F24243ADF8243008AB4FF0000912
:1044600013F80870384652F01DF8423839461328C0
:1044700096BF624B4FF0FF351D560AA8FFF77FFB32
:10448000029B05EBC5051D444FF0000A019520680D
:1044900001F0B6FC019A074612F8013B184601925A
:1044A000039351F0FFFF462800F09A80039B07DC3E
:1044B000422800F09980442800F09480184609E0D2
:1044C000522800F08B80552803D04C28F6D1307943
:1044D00000E03078FFF764FF8DF81C00C0F307237D
:1044E000C0F3074000228DF81E0038468DF81D30BD
:1044F000079BADF810301B0C8DF81230049906F0B4
:10450000E1F900220121384606F008FA00201FF0E8
:1045100015FBC0F307238DF81400C0F307408DF896
:10452000153000228DF816003846059906F0E7F997
:104530000B9A0A9938464A4451440AF1190A02F082
:104540001EFF16223846114602F058FFBAF14B0FF3
:104550009DD109F119090335B9F14B0F94D108F137
:104560000108B8F1060F7FF478AFDBF80430012BB7
:104570003CD9DBF800300AA81978FFF700FB206867
:1045800001F03EFC00220446114606F0AAF96FF045
:104590007F401FF0D3FAC0F307238DF81800C0F353
:1045A00007408DF8193000228DF81A002046069930
:1045B00006F0A5F920460022022106F0AFF90B9A79
:1045C0000A9920461732173102F0D9FE1A222046E6
:1045D00011460DB0BDE8F04F02F010BF707879E7DA
:1045E000B07877E7F07875E7707973E70DB0BDE8DC
:1045F000F08F00BF00210024554C465248AA0908FC
:1046000021F08ABA01481FF099BA00BFFFF8F500FF
:1046100000F1080373B50360044608460D464EF0EA
:104620004FFC0F2805EB0006019007D9002201A9D5
:10463000204649F0D7F8019B2060A3603246294606
:10464000206849F023F9019B22680021204663601D
:10465000D15402B070BD0000F0B52DED028B87B0D3
:1046600008F02CF806F082FB08F028F82AF070FD1C
:10467000064645492BF04EF90A2300220221304616
:1046800002F008FF41496846FFF7C2FF6846FCF7A1
:104690005FF80024684649F0C9F807EE904A0534EF
:1046A000F8EEE77A17EE900AFDF756FA4FF4FA7033
:1046B00035F08CFD192CF0D134496846FFF7A8FF7E
:1046C0006846FCF745F86846314F49F0AFF8314D80
:1046D000314B6846314C3B602B60314B3149236094
:1046E000FFF796FF9FED308A6846D7ED007A67EEB8
:1046F000887AFDEEE77A17EE901AFDF71FFF05E0C6
:10470000684649F093F848F00FFEF9E7684649F02B
:104710008DF826496846FFF77BFFD5ED007A68469D
:1047200067EE887AFDEEE77A17EE901AFDF706FF3E
:10473000684649F07BF81E496846FFF769FFD4EDEB
:10474000007A684627EE888AFDEEC87A17EE901A3E
:10475000FDF7F4FE684649F069F8304615492BF03C
:10476000D9F80023092130461A4602F093FE40F2A0
:10477000DC5035F02BFDFFF7FFFA07B0BDEC028BE4
:10478000F0BDBDE7BCE7BBE7B1AB0908F0A4090881
:104790000400002408000024000040420C00002413
:1047A0000000A04138A609080000C84247A6090831
:1047B00056A60908CAAB0908704708B5102024F0AE
:1047C000D1FE102035F002FDF8E70B6803604B685E
:1047D00043608B68836070472DE9F04F0C468DB0C5
:1047E0000746084691461FF061F805468346204675
:1047F0001FF061F80646384607F020FF002836D043
:10480000DFF89C8006FB05F107908900D8F80000CE
:104810004DF0B6FEC8F80000384607F0C5FCD8F8E1
:104820000030824601462846059308F025FC514693
:104830000690304608F020FC079B069A05990092E6
:104840002A46CDF80CA03546CDE90103334648464B
:1048500019F09AFA384607F059FCE368D8F8009046
:104860005E46C01A236808AC013809930890D4F852
:10487000008000F01DFC646804FB008400F008FC6C
:1048800002232A466400009333462118484600F06C
:104890009BF938460DB0BDE8F04F07F0FABC00BFF9
:1048A000182100240022C26070470C30704708B500
:1048B000FFF7FBFF0023036008BDC3680BB19B68D3
:1048C00018477047F8B5044603600E461546C0E920
:1048D0000312186847681846B8470728A06013D81D
:1048E000012303FA00F010F0F70F06D103070BD5F0
:1048F000B542CCBF0025012503E0B542D4BF002559
:10490000012525712046F8BD00232371FAE7704781
:1049100010B504460021FFF7C5FF204610BD10B5B5
:104920000446FFF7CAFF204610BD0000044BC360D9
:1049300003460A6843F8042B002242605A6070471D
:10494000F4AB090813B50446019121B9FFF7AFFF95
:10495000204602B010BD01A9FFF7E8FFF8E700000C
:1049600070B5044686B000F0ADF901462F4833F02B
:1049700041FA2068A16803681B68984700284BDB50
:104980002B4D1DF021FD2B4E2B78BFF35B8F13F0C9
:10499000010F0FD128463CF0F5FB58B1D4E90330A4
:1049A00058430A2390FBF3F04DF03EF9306028465F
:1049B0003CF00AFC33688BB32279D4E90330FAB1B6
:1049C000194607F0A7FC0321054607F027FE0A2138
:1049D0002846D4E903325343002293FBF1F30092BB
:1049E000316807F0EBFB1449284607F0D5FB134963
:1049F00002A8FFF7A7FF02A911483DF05DF905E005
:104A00000146184607F086FC0546E0E702A8FFF7D6
:104A100086FF002006B070BD0320FBE70220F9E707
:104A200002A8FFF77CFF48F07FFC00BFFE2A0124AC
:104A300014210024D8210024D9470408BB470408C6
:104A40001C2100240368184708B5FFF7FBFF08BDC9
:104A500013B5164C164B204640F8043BFFF758FFA1
:104A6000002104F140003DF045F804F154003CF011
:104A7000DFFF00234FF480521821204600933DF0C1
:104A8000B3F80C4A20460C4902B0BDE810403CF097
:104A900069BB0A483DF00CF809483DF054F8094854
:104AA000FFF73DFF48F040FCF6E7F8E71C21002443
:104AB00058760A0800000024691C080870210024A8
:104AC0005C2100242021002403207047012070472E
:104AD000C8B208B500F038FB002008BD30B5114A57
:104AE0008FB00023022514680A91FF210E4A01931A
:104AF0001268ADF834308DF8363004920595CDE962
:104B00000613CDE902434FF4C0610723CDE90B4200
:104B1000CDE90813024601A904483FF0A3FC0FB0F9
:104B200030BD00BF1400002418000024E821002438
:104B30002DE9F341144C0F4690464FF440310222C8
:104B4000E360124B06462046089D2360C4E901122B
:104B50003DF06DFBA0B9012120463DF041FC78B944
:104B6000CDF800803B463246294620463DF09CFB6E
:104B700030B91921204602B0BDE8F0413DF0AEBB8E
:104B800002B0BDE8F08100BF902200240010005266
:104B9000094B342213B51C68084B04F00104084982
:104BA000009002FB0434074A002309681268E06D94
:104BB000FFF7BEFF02B010BDE4210024E82100246D
:104BC00014000024180000242DE9F74F14461E4657
:104BD000364A002305460F460C98C2F88430BFF3CE
:104BE0004F8FD2F8803043F6E0799446C3F3C90E74
:104BF000C3F34E334FEA8E785B0103EA090B41465B
:104C00007246013A4BEA010A01F14041B2F1FF3F1D
:104C1000CCF874A2F5D1203B13F1200FEDD1BFF3F6
:104C20004F8FBFF36F8FBFF34F8FBFF36F8F002393
:104C3000CCF85032BFF34F8FBFF36F8F1C4B022263
:104C40004FF48031C3E901121A4A1268121BDA606C
:104C500047B9194A34271949126802F0010207FBC3
:104C60000212D76D00224FF00108C3E91120C3E9F9
:104C70001382134A0E481A603DF0D9FA98B941469A
:104C80000B483DF0ADFB70B9009623463A462946E5
:104C900007483DF009FB30B91921054803B0BDE8CC
:104CA000F04F3DF01BBB03B0BDE8F08F00ED00E01E
:104CB0009022002414000024E4210024E821002490
:104CC00000100052044A054B10681B68584300F15D
:104CD000C0508000704700BF18000024140000245A
:104CE00038B5134B134D1A68511C02F001021960BC
:104CF000D4012B68002A03F18403E15841F001013B
:104D0000E15014BF002180215A5822F001025A506C
:104D100060B1094C00230221284623603FF0CFFBFD
:104D200023681BB9012035F051FAF9E738BD00BFFF
:104D3000E4210024E82100241C2300242DE9F04F65
:104D4000C84E14461368DBB03268C74FC74DB3FB7B
:104D5000F2F3B3F5007F84BFC82333603B78BFF321
:104D60005B8F13F0010F0BD138463CF00BFA38B1D2
:104D7000236838463268B3FBF2F32B603CF024FA28
:104D8000BB4FDFF8FCA23B78BFF35B8F13F0010F42
:104D90000DD138463CF0F6F948B132684FF47A73D9
:104DA0003846B3FBF2F3CAF800303CF00DFA2A683B
:104DB0000F2133685820DFF8CC8200265343DFF8F8
:104DC000C892DFF8C8B2012723606368C8F80030D2
:104DD0006369C9F80030A74BD3F8E42042F0080219
:104DE000C3F8E420D3F8E42002F008020392D3F8D9
:104DF0008C2042F00802C3F88C20D3F88C2022F0DB
:104E00000802C3F88C20D3F8D42042F01002C3F873
:104E1000D420D3F8D42002F010020492DA6F42F0CA
:104E20001002DA67DA6F22F01002DA67D3F8E420B2
:104E300042F01002C3F8E420D3F8E42002F010029C
:104E40000592D3F88C2042F01002C3F88C20D3F8DE
:104E50008C2022F01002C3F88C2000223DF088F84C
:104E600058203DF0B7F800220F215A203DF080F87D
:104E70005A203DF0AFF800220F217B203DF078F85A
:104E80007B203DF0A7F84FF0A0435846CBF8003008
:104E90003DF0DBFB7D22042306A958460896CBF89B
:104EA0000460CDE90623CBE902373DF01BFB94F803
:104EB00024304FF22441D4F800C013F0020FD4F88C
:104EC0000CE0119614BF3246022213F0010F18961F
:104ED00017924FF002020CBF04233346129216932E
:104EE00040F6FF730192CDE91463D8F800301393B4
:104EF000236901FB03F07344B0FBFCF0199001FB44
:104F00000EF04FF4007EB0FBFCF01A906068034492
:104F1000A0681844236A1C93E36948434FF4004196
:104F20001D93A369B0FBFCF01E934FF4006C636902
:104F30001B904FF400501F931023CDE920134FF422
:104F400080510093CDE90F662296CDE923014FF4FD
:104F500080615846CDE925C14FF48071CDE927E144
:104F60000FA93DF0BDFB232158460D96CDE909114F
:104F7000CDE90B110A210E9109A93DF0B7FC009B68
:104F80004FF00051019A33932AA82B683A4D34937D
:104F900007232A913693DAF800303592379340F0A0
:104FA00043FF364B28462B603FF0F1F92269284633
:104FB000531E6B61E3681A44531EEB6163681A4425
:104FC000531E6B62A3682E61013B1A44EA62226A97
:104FD000531EAB61E3691A44531E2B6263691A4482
:104FE000531EAB62A369AE86013B85F836601A4456
:104FF000D8F800302B66D9F800302A636B6694F835
:105000002430DA075B076A6003F08043C5E90236A3
:105010003FF050F958463DF0A5FC58463DF0C5FC20
:1050200030464FF0C041FFF759FDD8F80030D9F8AD
:1050300000103846594301F14051B940FFF74EFD89
:1050400058463DF034FD3046FFF7A2FD3846FFF7E5
:1050500047FE3046FFF79CFD3846FFF741FE5BB048
:10506000BDE8F08F1C000024DC210024F82200247D
:10507000E021002400440258E821002400100050E0
:10508000FC22002414000024180000240023002423
:10509000054B3421054A1B68013303F0010301FB72
:1050A0000323D86D704700BFE4210024E8210024C9
:1050B000014B1868704700BF1400002401483FF0FE
:1050C00074B900BFE8210024014B01221A60704727
:1050D0001C23002407B50346009113220021034836
:1050E0003DF073FC03B05DF804FB00BF0023002417
:1050F00007B5002103461522034800913DF065FCE9
:1051000003B05DF804FB00BF0023002430B50C465B
:1051100089B005461322013C03AB0021E4B21846D6
:105120004DF0CEF9691C22464DF0CCF82B7839228F
:10513000002100932346019002483DF057FC09B03E
:1051400030BD00BF00230024BF4A342303FB0020EE
:1051500070B54368E0B0BD4C3593C368369383693E
:1051600039930369389343693793C3693A93036A60
:105170003D93436A3C93836A3B9390F83020002030
:105180009DF8F830C2F30001C2F3400261F300035E
:105190003FA962F3410335AA8DF8F830FFF7CEFD41
:1051A0000120FFF7A5FFC82035F010F81120FFF708
:1051B0009FFF4FF4487035F009F8A3882068062156
:1051C000ADF8383023460D900DA833F8062F9B78A4
:1051D000ADF808208DF80A30234633F8092F9B7864
:1051E000ADF80C208DF80E30234633F80C2F9B7849
:1051F000ADF810208DF81230B4F80F30ADF804304F
:10520000FFF784FF032102A8FFF780FF032103A813
:10521000FFF77CFF032104A8FFF778FF022101A814
:10522000FFF774FF04F111031CAA21341868083336
:1052300053F8041C1546A34203C52A46F6D11B7831
:1052400021AA2B701546824B03F11006186808330B
:1052500053F8041C1446B34203C42246F6D11B780B
:1052600011211CA823707B4CFFF750FF1121284609
:10527000FFF74CFF2068A38806210F900FA8ADF818
:105280004030FFF743FF6521B020FFF723FF3421B3
:10529000B120FFF71FFF8721B220FFF71BFF8021FE
:1052A000B320FFF717FF4921B520FFF713FF852132
:1052B000B720FFF70FFF2021B820FFF70BFF1021C9
:1052C000B920FFF707FF7821C120FFF703FF7821FE
:1052D000C220FFF7FFFE8821D020FFF7FBFE6420ED
:1052E00034F074FFD4F806000421089008A8FFF7F2
:1052F0000DFF224615AB52F80A0F516803C39068A0
:1053000000210E22186018A84DF0DAF8E2230C21D3
:1053100015A88DF86030FFF7F9FE0E2118A8FFF7E9
:10532000F5FE2346052153F8160F1B79099009A8AD
:105330008DF82830234633F81B2F9B78ADF81420C6
:105340008DF81630FFF7E2FE032105A8FFF7DEFE19
:1053500026AA04F11E032E3416461868083353F8A3
:10536000041C1546A34203C52A46F6D11B783046D5
:10537000394C11212B70FFF7C9FE237920680521D4
:105380008DF8303023460B900BA833F8052F9B780F
:10539000ADF818208DF81A30FFF7B8FE032106A8E3
:1053A000FFF7B4FE2BAA04F1080318341646186858
:1053B000083353F8041C1546A34203C52A46F6D108
:1053C0001B783046254C11212B70FFF79FFE20687B
:1053D000616813AB03C32346082113A833F8082FD1
:1053E0009B78ADF81C208DF81E30FFF78FFE03214F
:1053F00007A8FFF78BFE30AA04F10B031B341646F7
:105400001868083353F8041C1546A34203C52A46FE
:10541000F6D11B78304611212B70FFF777FE104B29
:10542000062118689B88119011A8ADF84830FFF745
:105430006DFE0A2034F0CAFE2920FFF759FEC8206D
:1054400034F0C4FE60B070BD2000002414AC090824
:1054500036AC090847AC090876AC09088FAC0908D6
:10546000ABAC090870B50646002019F0E7F9002535
:1054700004460CB9284670BD204619F0F9F90128F8
:105480000AD0204619F0FAF9864208BF2546204680
:1054900019F0D4F90446ECE72546EBE72DE9F0478F
:1054A000044689469246C5684FF001080027002D42
:1054B00057D1237F1A0704D4002F64D00020BDE801
:1054C000F087B8F1000FF9D02046C8470646002FF4
:1054D00035D1002EF2D035464FF00008286800F094
:1054E00002FD030631D42F688FBBE368AB42E5D0E1
:1054F00073B11E682046FFF7B5FF142102463046FF
:1055000001F038FD0128D9D1E368186802F00CFADF
:10551000E56020462D68FFF7A5FF132102462846C7
:1055200001F028FD01280546C8D1E368186802F09B
:10553000FBF923690BB1204698472846BFE705468B
:105540003E464FF00008002DC8D13746AFE7012195
:10555000384600F07BFC78B9384605F085FA0746F6
:10556000C2E7002F14BF3E462E4629462046D047AC
:10557000B0420546E7D1A1E70121384600F066FCBC
:105580000028B2D0E1E7B8F1000F97D02046C84715
:1055900006469EE7202101481EF0B7BFF85F0124B0
:1055A000014B186C704700BFC45F012410B504465E
:1055B00000B9FEE7037FDB070BD4074A0749FFF773
:1055C0006DFF63693BB130B920460121BDE8104051
:1055D00018470020F5E710BD694606085D46060835
:1055E00010B5044600B9FEE7037FDB070BD407497B
:1055F000074AFFF753FF0146636933B129B92046D3
:10560000BDE8104018470021F6E710BD63460608C4
:105610007146060870B5064600F071FC0446002885
:1056200038D0C368E3B11B68B34219D1037FDA07EE
:1056300044BF6FF3000303771FF010F8E368834261
:1056400029D120461FF00DF8E368984223D1056860
:105650002046FFF707FF14210246284601F08AFC86
:10566000E36823B11B68B34204BF0023E360204614
:105670001EF0F4FF054668B12B6829462046B34268
:105680001CD11EF0ACFF284621F082FBB3680BB1A1
:1056900000225A6070BD237F2046C3F3C00543F04B
:1056A000080323775B0706D4FFF780FF237F65F3AA
:1056B000C3032377D4E7FFF793FFF7E71EF0D4FF88
:1056C000D8E770B50D46044620B30846FFF7A2FFA1
:1056D000AB6813B9284600F030FEAB6820465C602A
:1056E0001EF061FF064600B9FEE7056020461EF089
:1056F000B5FF86420ED1237F2046C3F3C00543F099
:10570000080323775B0706D4FFF750FF237F65F379
:10571000C303237770BDFFF763FFF7E710B1C068DD
:1057200000B10068704713B5019100B9FEE7FFF7BB
:10573000F5FF044610B9012002B010BD802100F031
:10574000D6FB0028F7D101AA1121204601F012FC56
:10575000F2E738B5024600B9FEE7037FC3F3400421
:105760008C4217D061F341030377FFF7D7FF04465C
:1057700080B1D36810461D68FFF774FE13210246FE
:10578000284601F0F7FB012804D12046BDE8384047
:1057900002F0CAB838BDF8B5064670B100F0AFFBEC
:1057A000044650B1017F11F0010106D1FFF7D1FF8E
:1057B00020461EF053FF054600B9F8BD2B689E42F7
:1057C00029D1E36883B11F68BE420DD02046FFF7A0
:1057D00049FE14210246384601F0CCFB0128ECD1E9
:1057E000E368186802F0A0F82369E5600BB1204671
:1057F0009847E36820461D68FFF734FE13210246F0
:10580000284601F0B7FB0128D7D1E3681868BDE846
:10581000F84002F089B8294620461EF025FFCAE765
:1058200010B1007FC0F34000704700B9FEE71EF0E2
:1058300022BF2DE9F3414D680C468DB3284603F095
:10584000C3F80746284603F06EF8AE69804610227A
:105850000021284604F082F9019030446E6912223A
:105860000021A0EB0800A06101382062284604F066
:1058700075F9304443F20233C01B60610138E061C6
:105880006362636A3DB943F4076343F004036362F0
:1058900002B0BDE8F08143F4084343F07403F6E737
:1058A00041F20203ECE72DE9F04FB0F828B089B0DF
:1058B00004460E468B4506D00A46594604F085F943
:1058C000029018B9268509B0BDE8F08F204602F095
:1058D0002BF82046268504F0B0FA4FF4207021F012
:1058E00045FA638D0021F243C3F305130546079281
:1058F00005930B46059A8A4268D84FF01408A946CA
:1059000008FB0358C84540F08B80284621F040FA38
:10591000029B03F0FD03012B40F09080FF224FF427
:105920007021204609B0BDE8F04F04F0E3BA682AC0
:1059300000F1080011D1DEF8042010680138074694
:105940000CF47F00069017F8010F039048B11F2B4D
:1059500007D8AE464FF000091DE002788646002ABF
:10596000E5D10131C6E7013250E09EF80880039886
:1059700080450CD1DEF80400049000F47F008046DE
:105980000698804503D1BDF81080D045DBD209F1DF
:1059900001090EF1140E4B45E7D1142000FB03F86A
:1059A000D068013325F8080005EB080E1069AEF841
:1059B00002009068CEF80C0097F800808EF80880FE
:1059C0005068CEF804C0CEF81000BCE71F2B94D866
:1059D000C800D4F80CE00EEB0008D8F80420C2F39D
:1059E000170C079A1FFA8CFA12EA0A0FB9D198F825
:1059F000072012F00202B4D15EF8000090F808E02F
:105A00000068BEF1FF0FA8D000EB8E089645A8D91C
:105A100018F80290B9F1680FA5D150F822208CE750
:105A2000D9F804103346CDF800905A4601F47F01AE
:105A3000204604F01BFD09F1140963E7029B022BC9
:105A40007FF441AF204601F06FFF204609B0BDE86A
:105A5000F04F01F04FBA2DE9F0410546A6B01EF017
:105A60005CFB064628461EF054FB1A2E04467DD1E8
:105A700028461EF056FB03780646022B09D02D223D
:105A80000021204604F06AF805460A9020B102235E
:105A9000337026B0BDE8F08101460C22204604F0A8
:105AA0005DF86A2207460A902946204604F056F817
:105AB0006B2280460A902946204604F04FF863691D
:105AC000024641460A930AA8A3690B93E3690C9323
:105AD000236A0D931DF055FB3A460AA970681DF024
